:100000000C942A001895000018950000189500001F
:100010000C94D70018950000189500001895000062
:100020000C94DA011895000018950000189500004E
:10003000189500001895000018950000189500000C
:1000400018950000189500001895000018950000FC
:10005000189500008FE58DBFC8E3E0E24E2E84E0E6
:100060008EBFD4E0F4E05F2EA89584B7082E877F7A
:1000700084BF88E1992781BD91BDEEEFF3E0A0E652
:10008000B0E088278D933197E9F70E945C026624DF
:1000900080E08FBD87E08EBD82E085BD80E08ABBB9
:1000A00079B7746079BF79B7706479BF8CE00E94CA
:1000B000AA020E9444028FE714E00E945302ECEC73
:1000C000FAE00E943702A6E6B0E089B38C93009173
:1000D0006600013011F00C94BA00ABE6B0E08C91F0
:1000E0008F5F8C9300916B00023018F011F00C942C
:1000F0007B000C947E0080E080936B0000916B008D
:10010000003011F00C9490000E944402E8EDFAE0F7
:100110000E943702E0EEFAE00E9437020C94AE0033
:10012000013011F00C94A0000E944402E8EDFAE0C6
:100130000E943702E4EEFAE00E9437020C94AE000F
:10014000023011F00C94AE000E944402E8EDFAE097
:100150000E943702EAEEFAE00E943702A6E6B0E01B
:1001600089B38C9300916600003011F40C94BA00AE
:100170000C94AE0000916600023011F00C94C200A5
:100180000C94C80084E690E00E94D7020C946300AF
:10019000789480E090E090934D0080934C0078E359
:1001A00074BD82E085BD0C94D300F894FFCF0F920C
:1001B0001F922F923F924F925F927F92AF92BF9287
:1001C0000F931F932F933F934F935F936F937F935F
:1001D0008F939F93AF93BF93CF93DF93EF93FF934F
:1001E0008FB78F93882785BDA4E6B0E00E942802D0
:1001F000A4E6B0E00D911C91083853E1150711F009
:100200000C94BA01E0ECFAE00E945305E0E6F0E05D
:100210000E94E1030E942D040E94BE04EDE0F0E084
:10022000A7E6B0E00E94CD03ECE4F0E0D190E080DE
:10023000FF2400270E9415040E94EB03E7E6F0E08C
:100240000E94E1030E940505EDE0F0E0A7E6B0E0C2
:100250000E94CD0300916B00003011F00C944A0114
:100260000E9444020E943E02E0EFFAE00E94370240
:100270000E944202E7E6F0E0A8E0B4E00E94E10359
:100280000E94E6020E942F02E0EEFAE00E9437028E
:100290000C94A401013011F00C947801E4ECFAE024
:1002A0000E945305E7E6F0E00E94E1030E94650426
:1002B000EDE0F0E0A7E6B0E00E94CD030E9444022A
:1002C0000E943E02E0EFFAE00E9437020E944202E2
:1002D000E7E6F0E0A8E0B4E00E94E1030E94E60255
:1002E0000E942F02E4EEFAE00E9437020C94A4016F
:1002F000023011F00C94A401E8ECFAE00E945305DE
:10030000E7E6F0E00E94E1030E946504EDE0F0E022
:10031000A7E6B0E00E94CD030E9444020E943E0284
:10032000E0EFFAE00E9437020E944202E7E6F0E0C6
:10033000A8E0B4E00E94E1030E94E6020E942F02BE
:10034000EAEEFAE00E94370200E010E020E030E040
:10035000A0E6B0E00D931D932D933C9380E090E0D8
:1003600090934D0080934C0080E090E0A4E6B0E0D4
:100370008D939C9378E374BD82E085BD8F918FBF90
:10038000FF91EF91DF91CF91BF91AF919F918F91AD
:100390007F916F915F914F913F912F911F910F919D
:1003A000BF90AF907F905F904F903F902F901F90A5
:1003B0000F9018950F921F922F923F924F925F923B
:1003C0007F92AF92BF920F931F932F933F934F93C0
:1003D0005F936F937F938F939F93AF93BF93CF93CD
:1003E000DF93EF93FF938FB78F93A0E6B0E00E9467
:1003F0001B0280E090E090934D0080934C008F9121
:100400008FBFFF91EF91DF91CF91BF91AF919F91FE
:100410008F917F916F915F914F913F912F911F919C
:100420000F91BF90AF907F905F904F903F902F9033
:100430001F900F9018950D911D912D913C910F5F7C
:100440001F4F2F4F3F4F3C932E931E930E930895B3
:10045000ED91FC91EF5FFF4FFC93EE930895A8E0C0
:10046000B4E08D91882311F06FD0FBCF08950E94E6
:10047000C903802D11F068D0FACF089582E06AD0C8
:1004800018D014C080EC66C081E064D012D080E83F
:1004900061C08FE7213039F08FEB223021F08FE8F7
:1004A000233009F08FEC810F0C94AA0280E852D01F
:1004B000089583E099277BC08AEF90E00E94D702DD
:1004C0008F9A8E9A8D9A8C9A8B9A8A9A929885E0B6
:1004D00090E00E94D702939897989698959A949A4C
:1004E000939AEF93FF93E4ECF0E00E94CB02FF912C
:1004F000EF91939859D0939AEF93FF93E4ECF0E047
:100500000E94CB02FF91EF9193984ED0939AEF9374
:10051000FF93E4ECF0E00E94CB02FF91EF919398FF
:1005200043D09498939AEF93FF93E4ECF0E00E9409
:10053000CB02FF91EF91939837D088E20BD08EE0F9
:1005400009D086E007D00895929A829505D004D00C
:100550002BD008959298F9CF859510F4949A01C004
:100560009498859510F4959A01C09598859510F406
:10057000969A01C09698859510F4979A01C097981D
:10058000939AEF93FF93E4ECF0E00E94CB02FF918B
:10059000EF91939808953197F1F70895689462F870
:1005A0000895E89462F8089581E090E000C0EF9328
:1005B000FF93EE27E82BE92B31F0E0EDF7E03197E0
:1005C000F1F70197D1F7FF91EF9108958DE207FDC3
:1005D0008D938F2D881F802F881F8F57082F689429
:1005E000F7F8802F87FF15C080958395082F80E34B
:1005F0008D938EE28D93802F815228F080E38D932E
:1006000099279C93089544270A95802F09F196D045
:100610001FC0805230F09EE49D9381E48D939D93A2
:10062000EFCF4427DF92EF92FF920F938FE1801B71
:1006300011F0082F83D089D09EE29D930F91FF90F7
:10064000EF90DF9044270395003209F4D7CF2BD0E9
:100650003F93ECEDF6E038E12F2D1E2D0D2DFF24FC
:10066000EE24DD244427000F111F221FA8F42F922F
:100670003F920E94C903102C0E94C903202C0E94A3
:10068000C903302C0E94C9033197410DD21CE31CD1
:10069000F01C3F902F9001C0339631963A9519F790
:1006A0003F9107D0AFCFDD0CEE1CFF1C0A95D9F7A8
:1006B0000895002719E058D08F93802B11F00395EF
:1006C00001C08F911A95B9F7802F882309F496CF2E
:1006D0008F91805D8D930A95D9F792CF0065CD1DDE
:1006E00080B2E60E40597307A0ACB90350D6DC01C6
:1006F000286BEE0094357700CA9A3B0065CD1D004B
:10070000B2E60E0059730700ACB90300D6DC010055
:100710006BEE0000357700009A3B0000CD1D000015
:10072000E60E000073070000B9030000DC010000C2
:10073000EE000000770000003B000000F694E79414
:10074000D79447950A95D1F7089500270DD08F9338
:1007500003958F2D8E298D29842BC1F78F91805D74
:100760008D930A95D9F74CCF1F930F93002710E272
:10077000440FDD1CEE1CFF1C001F802F9AE0890B2C
:1007800010F0082F43951A9599F7802F0F911F911C
:100790000895C89531960020089594E081918D9335
:1007A0009A95E1F70895B7FE089590E8B91611F407
:1007B000D0FE08959FEFD91AE90AF90A09F40395C2
:1007C0000895D190E190F190019108952191319196
:1007D000419151910895502F2D2D3E2D4F2D612F78
:1007E0000895D094E094F09491E0D90E9927E91EF1
:1007F000F91E10950895652F90E8440F551F59274D
:10080000990F47956078102F90E8FF0C001F09277B
:10081000990FF794107800380895FF0C90E890270E
:10082000110F9795F794092F08951127BD2CDE2CF1
:10083000EF2CF02E0EE1FF2039F4FE2CED2CDB2CFA
:10084000BB240850C2F775C032F00A95BB0CDD1C02
:10085000EE1CFF1CF9CFA7DFE0CF102FBD2CDE2C44
:10086000EF2CF02E11234AF4B094D094E094F0943D
:100870009FEFB91AD90AE90AF90A0EE1FF2039F403
:10088000FE2CED2CDB2CBB240850C2F752C032F0FA
:100890000A95BB0CDD1CEE1CFF1CF9CF84DFBDCF1D
:1008A0002DEC3CEC4CEC5DE366270FC08ADF93DF58
:1008B000DD24EE2490E8F92E0FE307C087DF05C0A2
:1008C0002227332740E251E46627552351F10023C4
:1008D00081F191DF71F11627005850580894050BEB
:1008E00018F407FD03C025C007FD23C046953795C2
:1008F0002795F694E794D79425D0FF202AF0DD0CB5
:10090000EE1CFF1C015073F09D2D969548F0DD20E4
:100910003AF4EE202AF491E0D90E9927E91EF91E47
:100920007CCF07C09FE7092FF92A9FEFD92EE92E28
:100930000895DD24EE24FF240027112708950FE7F2
:100940009FEFF2CF9F929924AA24BB2488E1D2166C
:10095000E306F40628F0D21AE30AF40A089401C068
:100960008894991CAA1CBB1CDD0CEE1CFF1C8A95EC
:1009700071F7D92CEA2CFB2C9F9008953CDFD9F01D
:100980005038C9F016270058952F90580894091F21
:1009900012F418F40EC008F00EC00FD0FF202AF099
:1009A000BB0CDD1CEE1CFF1C02C0039513F0FBDE2C
:1009B00034CF0C9492040C9499049F92FF92EF927E
:1009C0008D2DFF24EE24DD24BB2493E0849F1001B1
:1009D000829FB00CD11CE21CF31C839FD00CE11C45
:1009E0002224F21C9A9531F0BD2CDE2CEF2CFF2432
:1009F0008F91ECCF9F9008950AF045D00ECF5FE322
:100A000022273327442701C0E1DEF5DE5038B1F359
:100A1000003899F3902F951B8BF312F434D0FACF52
:100A2000983118F0222733274427983028F0232FB5
:100A3000342F44279850F9CF992329F046953795BC
:100A400027959A95D9F7912F962742F014D0B0F6B2
:100A5000F794E794D7940F5F8BF664CF10D051F0E2
:100A600008F4BFDEFF2052F2DD0CEE1CFF1C01502B
:100A7000CBF758CF5ECFD20EE31EF41E0895D21AE4
:100A8000E30AF40A0895DF92EF92FF920F931F9307
:100A9000D22EE32EF42E052F162F6F915F914F91DA
:100AA0003F912F9108950E94C903202D0E94C903F0
:100AB000302D0E94C903402D0E94C903502D089576
:100AC0000000804700007A4400247449454E544594
:100AD000522052414E47450052414E47453A000090
:100AE00020487A00204B487A0000204D487A0000C8
:0C0AF0004652455155454E43453A000022
:00000001FF
